:020000040800F2
:1000000000000424C90300081904000819040008AA
:100010001904000819040008190400080000000071
:1000200000000000000000000000000019040008AB
:100030001904000800000000190400081904000851
:10004000190400081904000819040008190400081C
:10005000190400081904000819040008190400080C
:1000600019040008190400081904000819040008FC
:1000700019040008190400081904000819040008EC
:1000800019040008190400081904000819040008DC
:1000900019040008190400081904000819040008CC
:1000A00019040008190400081904000819040008BC
:1000B00019040008190400081904000819040008AC
:1000C000190400081904000819040008190400089C
:1000D000190400081904000819040008190400088C
:1000E00019040008190400080000000019040008A1
:1000F000190400081904000819040008190400086C
:10010000190400081904000819040008190400085B
:10011000190400081904000819040008190400084B
:10012000190400081904000819040008190400083B
:10013000190400081904000819040008190400082B
:100140001904000819040008000000000000000065
:10015000190400081904000819040008190400080B
:1001600019040008190400081904000819040008FB
:100170001904000819040008190400080000000010
:1001800019040008190400081904000819040008DB
:1001900019040008190400081904000819040008CB
:1001A00019040008190400081904000819040008BB
:1001B00019040008190400081904000819040008AB
:1001C000190400081904000819040008190400089B
:1001D000190400081904000819040008190400088B
:1001E000190400081904000819040008190400087B
:1001F000190400081904000819040008190400086B
:10020000190400081904000819040008190400085A
:10021000190400081904000819040008190400084A
:10022000190400081904000819040008000000005F
:10023000190400081904000819040008190400082A
:10024000190400081904000819040008190400081A
:10025000190400081904000819040008190400080A
:1002600019040008190400081904000819040008FA
:1002700019040008190400081904000819040008EA
:1002800019040008190400081904000800000000FF
:100290001904000819040008000000000000000014
:1002A00010B5054C237833B9044B13B10448AFF3B0
:1002B00000800123237010BD4004002000000000D6
:1002C0008005000808B5034B1BB103490348AFF391
:1002D000008008BD000000004404002080050008E4
:1002E00080B400AFFEE7000080B400AF2F4BD3F81E
:1002F00088302E4A43F47003C2F888302B4B1B69B8
:100300002A4A43F004031361294B1B68284A43F02F
:1003100001031360264B00221A61254B1A682449F9
:10032000244B13400B60224B00229A61204B002289
:10033000DA611F4B00221A621D4B00229A621C4B8D
:100340000022DA621A4B00221A63194B00225A6308
:10035000174B00229A63164B0022DA63144B0022DB
:100360001A64134B00225A64114B1B68104A23F481
:10037000802313600E4B00221A660F4B5B6A0E4AF5
:1003800043F4804353620D4B1A680D4B1340B3F195
:10039000005F02D20B4B01221A60044B4FF0006247
:1003A0009A6000BFBD465DF8047B704700ED00E039
:1003B000004402587FEDF6EAC00000580010005CCF
:1003C0000000FFFF08810051DFF834D0002103E076
:1003D0000C4B5B58435004310B480C4B42189A426B
:1003E000F6D30B4A02E0002342F8043B094B9A4241
:1003F000F9D3FFF779FF00F011F8FFF771FF7047AD
:100400000000042400060008000000204004002032
:100410004004002080040020FEE7000070B50D4E6F
:100420000D4D761BB61006D00024013455F8043B60
:100430009847A642F9D1094E094D761B00F0A0F865
:10044000B61006D00024013455F8043B9847A64264
:10045000F9D170BDC0050008C0050008C805000836
:10046000C0050008024B13B1024800F005B8704700
:100470000000000085040008002301461A461846C3
:1004800000F01EB838B50A4C0A4D641BA4100AD0FF
:1004900004F18043013B05EB8305013C55F8043929
:1004A0009847002CF9D1BDE8384000F06FB800BF84
:1004B000E4050008E0050008704700BF704700BF72
:1004C0002DE9F8432B4D0646286898460F4691467D
:1004D000FFF7F2FF284B1C68D4F84831002B3DD0C1
:1004E0005A681F2A0DDC02F1010C16BB0232C3F858
:1004F00004C0286843F82270FFF7E0FF0020BDE841
:10050000F8831E4B7BB34FF4C870AFF300800346F3
:1005100048B3D4F848210021C0E900214FF0010C74
:10052000C4F848010A46C0F88811C0F88C11002EA2
:10053000DCD003EB82010124C1F88890D3F8880154
:1005400094402043022EC3F88801C1F80881CDD120
:10055000D3F88C110C43C3F88C41C7E704F5A6739C
:10056000C4F84831BCE72868FFF7A8FF4FF0FF3018
:10057000C5E700BF28040020A00500080000000017
:10058000F8B500BFF8BC08BC9E467047F8B500BF80
:10059000F8BC08BC9E467047000000000000000048
:1005A000000000200000000000000000000000002B
:1005B000000000000000000000000000000000003B
:1005C00065040008C50200080000000000000000EB
:1005D000000000000000000000000000000000001B
:1005E000A102000800000000000000000000000060
:1005F00000000000000000000000000000000000FB
:1006000000000000EC02002054030020BC03002086
:1006100000000000000000000000000000000000DA
:1006200000000000000000000000000000000000CA
:1006300000000000000000000000000000000000BA
:1006400000000000000000000000000000000000AA
:10065000000000000000000000000000000000009A
:10066000000000000000000000000000000000008A
:10067000000000000000000000000000000000007A
:10068000000000000000000000000000000000006A
:10069000000000000000000000000000000000005A
:1006A0000000000000000000010000000000000049
:1006B0000E33CDAB34126DE6ECDE05000B0000000E
:1006C000000000000000000000000000000000002A
:1006D000000000000000000000000000000000001A
:1006E000000000000000000000000000000000000A
:1006F00000000000000000000000000000000000FA
:100A200000000000000000005C0400200000000046
:100A300000000000000000000000000000000000B6
:04000005080003C923
:00000001FF
:020000040810E2
:100000000000082421031008710310087103100870
:10001000710310087103100871031008000000003C
:100020000000000000000000000000007103100844
:10003000710310080000000071031008710310081C
:100040007103100871031008710310087103100880
:100050007103100871031008710310087103100870
:100060007103100871031008710310087103100860
:100070007103100871031008710310087103100850
:100080007103100871031008710310087103100840
:100090007103100871031008710310087103100830
:1000A0007103100871031008710310087103100820
:1000B0007103100871031008710310087103100810
:1000C0007103100871031008710310087103100800
:1000D00071031008710310087103100871031008F0
:1000E000710310087103100800000000710310086C
:1000F00071031008710310087103100871031008D0
:1001000071031008710310087103100871031008BF
:1001100071031008710310087103100871031008AF
:10012000710310087103100871031008710310089F
:10013000710310087103100871031008710310088F
:100140007103100871031008000000000000000097
:10015000710310087103100871031008710310086F
:10016000710310087103100871031008710310085F
:1001700071031008710310087103100800000000DB
:10018000710310087103100871031008710310083F
:10019000710310087103100871031008710310082F
:1001A000710310087103100871031008710310081F
:1001B000710310087103100871031008710310080F
:1001C00071031008710310087103100871031008FF
:1001D00071031008710310087103100871031008EF
:1001E00071031008710310087103100871031008DF
:1001F00071031008710310087103100871031008CF
:1002000071031008710310087103100871031008BE
:1002100071031008710310087103100871031008AE
:10022000710310087103100871031008000000002A
:10023000710310087103100871031008710310088E
:10024000710310087103100871031008710310087E
:10025000710310087103100871031008710310086E
:10026000710310087103100871031008710310085E
:10027000710310087103100871031008710310084E
:1002800071031008710310087103100800000000CA
:100290007103100871031008000000000000000046
:1002A00010B5054C237833B9044B13B10448AFF3B0
:1002B00000800123237010BD4004042400000000CE
:1002C000D804100808B5034B1BB103490348AFF32A
:1002D000008008BD0000000044040424D804100875
:1002E00080B400AFFEE7000080B400AF0B4BD3F842
:1002F00088300A4A43F47003C2F88830074B1B6900
:10030000064A43F004031361044B4FF001629A6004
:1003100000BFBD465DF8047B704700BF00ED00E004
:10032000DFF834D0002103E00C4B5B58435004311C
:100330000B480C4B42189A42F6D30B4A02E00023BA
:1003400042F8043B094B9A42F9D3FFF7CDFF00F086
:1003500011F8FFF7C5FF704700000824600510087A
:1003600000000424400404244004042480040424E1
:10037000FEE7000070B50D4E0D4D761BB61006D091
:100380000024013455F8043B9847A642F9D1094EA0
:10039000094D761B00F0A0F8B61006D000240134F9
:1003A00055F8043B9847A642F9D170BD20051008C6
:1003B000200510082805100820051008024B13B16D
:1003C000024800F005B8704700000000DD03100887
:1003D000002301461A46184600F01EB838B50A4CEC
:1003E0000A4D641BA4100AD004F18043013B05EBC5
:1003F0008305013C55F804399847002CF9D1BDE834
:10040000384000F06FB800BF4405100840051008E0
:10041000704700BF704700BF2DE9F8432B4D0646DB
:10042000286898460F469146FFF7F2FF284B1C6854
:10043000D4F84831002B3DD05A681F2A0DDC02F158
:10044000010C16BB0232C3F804C0286843F82270BE
:10045000FFF7E0FF0020BDE8F8831E4B7BB34FF4AD
:10046000C870AFF30080034648B3D4F84821002198
:10047000C0E900214FF0010CC4F848010A46C0F859
:100480008811C0F88C11002EDCD003EB820101240E
:10049000C1F88890D3F8880194402043022EC3F815
:1004A0008801C1F80881CDD1D3F88C110C43C3F871
:1004B0008C41C7E704F5A673C4F84831BCE7286847
:1004C000FFF7A8FF4FF0FF30C5E700BF2804042462
:1004D0000005100800000000F8B500BFF8BC08BC1B
:1004E0009E467047F8B500BFF8BC08BC9E467047F2
:1004F00000000000000000000000000000000000FC
:1005000000000424000000000000000000000000C3
:1005100000000000000000000000000000000000DB
:10052000BD031008C5021008000000000000000014
:1005300000000000000000000000000000000000BB
:10054000A1021008000000000000000000000000F0
:10055000000000000000000000000000000000009B
:1005600000000000EC02042454030424BC0304240F
:10057000000000000000000000000000000000007B
:10058000000000000000000000000000000000006B
:10059000000000000000000000000000000000005B
:1005A000000000000000000000000000000000004B
:1005B000000000000000000000000000000000003B
:1005C000000000000000000000000000000000002B
:1005D000000000000000000000000000000000001B
:1005E000000000000000000000000000000000000B
:1005F00000000000000000000000000000000000FB
:1006000000000000000000000100000000000000E9
:100610000E33CDAB34126DE6ECDE05000B000000AE
:1006200000000000000000000000000000000000CA
:1006300000000000000000000000000000000000BA
:1006400000000000000000000000000000000000AA
:10065000000000000000000000000000000000009A
:1009800000000000000000005C04042400000000DF
:100990000000000000000000000000000000000057
:0400000508100321BB
:00000001FF
