:020000040800F2
:100000000000042421130008CD110008DB110008B2
:10001000E1110008E7110008ED11000800000000E0
:10002000000000000000000000000000F3110008C4
:1000300001120008000000000F1200081D12000845
:100040007113000871130008711300087113000880
:100050007113000871130008711300087113000870
:100060007113000871130008711300087113000860
:100070007113000871130008711300087113000850
:100080007113000871130008711300087113000840
:100090007113000871130008711300087113000830
:1000A0007113000871130008711300087113000820
:1000B0007113000871130008711300087113000810
:1000C0007113000871130008711300087113000800
:1000D00071130008711300087113000871130008F0
:1000E000711300087113000800000000711300086C
:1000F00071130008711300087113000871130008D0
:1001000071130008711300087113000871130008BF
:1001100071130008711300087113000871130008AF
:10012000711300087113000871130008711300089F
:10013000711300087113000871130008711300088F
:100140007113000871130008000000000000000097
:10015000711300087113000871130008711300086F
:10016000711300087113000871130008711300085F
:1001700071130008711300087113000800000000DB
:10018000711300087113000871130008711300083F
:10019000711300087113000871130008711300082F
:1001A000711300087113000871130008711300081F
:1001B000711300087113000871130008711300080F
:1001C00071130008711300087113000871130008FF
:1001D00071130008711300087113000871130008EF
:1001E00071130008711300087113000871130008DF
:1001F00071130008711300087113000871130008CF
:1002000071130008711300087113000871130008BE
:1002100071130008711300087113000871130008AE
:10022000711300087113000871130008000000002A
:10023000711300087113000871130008711300088E
:10024000711300087113000871130008711300087E
:10025000711300087113000871130008711300086E
:10026000711300087113000871130008711300085E
:10027000711300087113000871130008711300084E
:1002800071130008711300087113000800000000CA
:100290007113000871130008000000000000000046
:1002A00010B5054C237833B9044B13B10448AFF3B0
:1002B00000800123237010BD4004002400000000D2
:1002C0009422000808B5034B1BB103490348AFF360
:1002D000008008BD000000004404002494220008AF
:1002E00080B485B000AF78607B6803F00703FB60E3
:1002F0000B4BDB68BB60BA684FF6FF031340BB6073
:10030000FB681A02BB681A43064B1343BB60044ADE
:10031000BB68D36000BF1437BD465DF8047B7047EF
:1003200000ED00E00000FA0580B400AFBFF34F8F8E
:10033000BFF36F8F0B4B0022C3F85022BFF34F8FD8
:10034000BFF36F8F074B5B69064A43F40033536179
:10035000BFF34F8FBFF36F8F00BFBD465DF8047BC7
:10036000704700BF00ED00E080B485B000AF1D4BCA
:100370000022C3F88420BFF34F8F1A4BD3F880308C
:100380007B607B685B0BC3F30E03FB607B68DB0861
:10039000C3F30903BB60FB685A0143F6E0731340E3
:1003A000BA6892070F491343C1F86032BB685A1EFE
:1003B000BA60002BEFD1FB685A1EFA60002BE5D122
:1003C000BFF34F8F074B5B69064A43F48033536199
:1003D000BFF34F8FBFF36F8F00BF1437BD465DF87B
:1003E000047B704700ED00E080B483B000AF78601C
:1003F00039607B689B6823F47C123B681A437B68F6
:100400009A6000BF0C37BD465DF8047B704780B42E
:1004100083B000AF786039607B681B6B23F00F02FC
:100420003B681A437B681A6300BF0C37BD465DF812
:10043000047B704790B484B000AFF860B9607A6014
:10044000FB6830331A46BB681B0A9B0003F00C03A1
:1004500013441C462268BB6803F01F031F2101FAE6
:1004600003F3DB431A407B689B0E03F01F01BB685C
:1004700003F01F0301FA03F31343236000BF103797
:10048000BD4690BC704790B484B000AFF860B960CE
:100490007A60FB6814331A46BB685B0E9B0003F05E
:1004A000040313441C462268BB681B0D03F01F03A2
:1004B000072101FA03F3DB431A40BB681B0D03F06D
:1004C0001F03796801FA03F31343236000BF103759
:1004D000BD4690BC7047000080B485B000AFF860A6
:1004E000B9607A60FB68D3F8C020BB68C3F313031C
:1004F000DB431A407B6803F018030849D940BB6806
:100500000B40C3F313031A43FB68C3F8C02000BFBA
:100510001437BD465DF8047B704700BFFFFF0F0036
:1005200080B483B000AF786039607B681A69064B8D
:1005300013403A681A437B681A6100BF0C37BD4606
:100540005DF8047B704700BFFCFBFFFF80B483B005
:1005500000AF786039607B681B6923F400723B68E8
:100560001A437B681A6100BF0C37BD465DF8047BF7
:100570007047000080B485B000AFF860B9607A6061
:10058000FB681A69074B1340BA68013A11047A688C
:100590000A431A43FB681A6100BF1437BD465DF871
:1005A000047B70471FFE00FC80B483B000AF78600E
:1005B0007B689A68044B13407A68936000BF0C37DD
:1005C000BD465DF8047B7047C0FFFF5F80B483B019
:1005D00000AF78607B689A68054B134043F0805207
:1005E0007B689A6000BF0C37BD465DF8047B70479E
:1005F000C0FFFF6F80B483B000AF78607B689B68FA
:1006000003F08053B3F1805F01D1012300E00023A8
:1006100018460C37BD465DF8047B704780B483B044
:1006200000AF78607B689A68054B134043F0010285
:100630007B689A6000BF0C37BD465DF8047B70474D
:10064000C0FFFF7F80B483B000AF78607B689A689A
:10065000054B134043F002027B689A6000BF0C37E1
:10066000BD465DF8047B7047C0FFFF7F80B483B058
:1006700000AF78607B689B6803F00103012B01D118
:10068000012300E0002318460C37BD465DF8047BCB
:100690007047000080B485B000AFF860B9607A6040
:1006A000FB689A68094B1340BA6802F480317A6893
:1006B00002F080420A43134343F00042FB689A6011
:1006C00000BF1437BD465DF8047B7047C0FFFE3F96
:1006D00080B483B000AF78607B689B6803F0004310
:1006E000B3F1004F01D1012300E0002318460C377D
:1006F000BD465DF8047B704780B483B000AF78607E
:100700007B689A68054B134043F004027B689A604B
:1007100000BF0C37BD465DF8047B7047C0FFFF7F0C
:1007200080B483B000AF78607B681B6803F001037E
:10073000012B01D1012300E0002318460C37BD46F0
:100740005DF8047B704780B483B000AF78607B684D
:1007500004221A6000BF0C37BD465DF8047B704769
:1007600080B483B000AF78607B6808221A6000BF55
:100770000C37BD465DF8047B704780B483B000AF92
:1007800078607B6810221A6000BF0C37BD465DF8A8
:10079000047B704780B485B000AF78600A4BD3F813
:1007A000D82009497B681343C1F8D830064BD3F8E9
:1007B000D8207B681340FB60FB6800BF1437BD4640
:1007C0005DF8047B704700BF0044025880B485B0D8
:1007D00000AF78600A4BD3F8E02009497B681343E7
:1007E000C1F8E030064BD3F8E0207B681340FB6093
:1007F000FB6800BF1437BD465DF8047B704700BF3F
:100800000044025880B400AF054B1B68044A43F013
:100810000103136000BFBD465DF8047B704700BF55
:100820000044025880B400AF064B1B6803F0040379
:10083000042B01D1012300E000231846BD465DF8DA
:10084000047B70470044025880B483B000AF7860E6
:10085000064B1B6823F0180204497B6813430B60A6
:1008600000BF0C37BD465DF8047B7047004402585A
:1008700080B483B000AF78600F4B1B6803F0704307
:10088000B3F1805F09D10D4B5B6823F47C327B6848
:100890001B030A4913434B6008E0084B5B6823F0D5
:1008A000FE427B681B06054913434B6000BF0C37B3
:1008B000BD465DF8047B70470010005C00440258A0
:1008C00080B483B000AF7860064B1B6923F0070249
:1008D00004497B6813430B6100BF0C37BD465DF8CC
:1008E000047B70470044025880B483B000AF786046
:1008F000064B9B6923F4706204497B6813438B6148
:1009000000BF0C37BD465DF8047B704700440258B9
:1009100080B483B000AF7860064B9B6923F00F0270
:1009200004497B6813438B6100BF0C37BD465DF8FB
:10093000047B70470044025880B483B000AF7860F5
:10094000064BDB6923F0700204497B681343CB61DB
:1009500000BF0C37BD465DF8047B70470044025869
:1009600080B483B000AF7860064BDB6923F4E062AB
:1009700004497B681343CB6100BF0C37BD465DF86B
:10098000047B70470044025880B483B000AF7860A5
:10099000064B9B6923F0700204497B6813438B610B
:1009A00000BF0C37BD465DF8047B70470044025819
:1009B00080B483B000AF7860064B1B6A23F07002EE
:1009C00004497B6813430B6200BF0C37BD465DF8DA
:1009D000047B70470044025880B483B000AF786055
:1009E000064B9B6D23F4403204497B6813438B65AF
:1009F00000BF0C37BD465DF8047B704700440258C9
:100A000080B483B000AF7860064B9B6A23F003028A
:100A100004497B6813438B6200BF0C37BD465DF809
:100A2000047B70470044025880B400AF054B1B683C
:100A3000044A43F08073136000BFBD465DF8047B39
:100A4000704700BF0044025880B400AF074B1B68DA
:100A500003F00073B3F1007F01D1012300E0002314
:100A60001846BD465DF8047B704700BF004402583D
:100A700080B400AF054BDB6A044A43F48033D36291
:100A800000BFBD465DF8047B704700BF00440258BC
:100A900080B483B000AF7860074BDB6A23F00202BA
:100AA0007B685B0004491343CB6200BF0C37BD4633
:100AB0005DF8047B704700BF0044025880B483B0E7
:100AC00000AF7860074BDB6A23F00C027B689B0069
:100AD00004491343CB6200BF0C37BD465DF8047B6D
:100AE000704700BF0044025880B483B000AF786004
:100AF000074B1A6B074B13407A68013A04491343BA
:100B00000B6300BF0C37BD465DF8047B704700BF28
:100B10000044025800FEFFFF80B483B000AF78604D
:100B2000074B9B6A23F47C727B681B0104491343C7
:100B30008B6200BF0C37BD465DF8047B704700BF79
:100B40000044025880B483B000AF7860074B1B6B41
:100B500023F47E427B68013B5B02044913430B6331
:100B600000BF0C37BD465DF8047B70470044025857
:100B700080B483B000AF7860074B1B6B23F4FE0298
:100B80007B68013B1B04044913430B6300BF0C3714
:100B9000BD465DF8047B70470044025880B483B0C2
:100BA00000AF7860074B1B6B23F0FE427B68013B74
:100BB0001B06044913430B6300BF0C37BD465DF8A9
:100BC000047B70470044025880B400AF054B1B689B
:100BD000044A43F08063136000BFBD465DF8047BA8
:100BE000704700BF0044025880B400AF074B1B6839
:100BF00003F00063B3F1006F01D1012300E0002393
:100C00001846BD465DF8047B704700BF004402589B
:100C100080B400AF054BDB6A044A43F40023D3627F
:100C200000BFBD465DF8047B704700BF004402581A
:100C300080B400AF054BDB6A044A43F01003D36273
:100C400000BFBD465DF8047B704700BF00440258FA
:100C500080B483B000AF7860074BDB6A23F02002DA
:100C60007B685B0104491343CB6200BF0C37BD4670
:100C70005DF8047B704700BF0044025880B483B025
:100C800000AF7860074BDB6A23F0C0027B689B01F2
:100C900004491343CB6200BF0C37BD465DF8047BAB
:100CA000704700BF0044025880B483B000AF786042
:100CB000074B9A6B074B13407A68013A0449134378
:100CC0008B6300BF0C37BD465DF8047B704700BFE7
:100CD0000044025800FEFFFF80B483B000AF78608C
:100CE000074B9B6A23F47C327B681B030449134344
:100CF0008B6200BF0C37BD465DF8047B704700BFB8
:100D00000044025880B483B000AF7860074B9B6BFF
:100D100023F47E427B68013B5B02044913438B63EF
:100D200000BF0C37BD465DF8047B70470044025895
:100D300080B483B000AF7860074B9B6B23F4FE0256
:100D40007B68013B1B04044913438B6300BF0C37D2
:100D5000BD465DF8047B70470044025880B483B000
:100D600000AF7860074B9B6B23F0FE427B68013B32
:100D70001B06044913438B6300BF0C37BD465DF867
:100D8000047B70470044025880B483B000AF7860A1
:100D9000074BDA6B074B13407A68D20004491343C0
:100DA000CB6300BF0C37BD465DF8047B704700BFC6
:100DB000004402580700FFFF80B485B000AFF86020
:100DC000B9607A60FB681968BB68BA6802FB03F215
:100DD00013465B001344DB4301EA0302BB68B968B6
:100DE00001FB03F3796801FB03F31A43FB681A6004
:100DF00000BF1437BD465DF8047B704780B485B0F2
:100E000000AFF860B9607A60FB68D968BB68BA68FF
:100E100002FB03F213465B001344DB4301EA0302C7
:100E2000BB68B96801FB03F3796801FB03F31A435C
:100E3000FB68DA6000BF1437BD465DF8047B70477D
:100E400080B483B000AF7860064B1B6823F00F02BC
:100E500004497B6813430B6000BF0C37BD465DF847
:100E6000047B70470020005280B400AF044B1B6825
:100E700003F00F031846BD465DF8047B704700BFC2
:100E80000020005280B483B000AF7860064BDB686E
:100E900023F03F0204497B681343CB6000BF0C374B
:100EA000BD465DF8047B70470048025880B483B0AB
:100EB00000AF7860064B9B6923F4404204497B688D
:100EC00013438B6100BF0C37BD465DF8047B704750
:100ED0000048025880B592B000AF00F06FF90320CF
:100EE000FFF7FEF900F0DCF80023BB632020FFF7DA
:100EF00051FC4FF40030FFF76FFD0120FFF766FC57
:100F0000032240215F48FFF757FF002240215D4840
:100F1000FFF774FF5C48FFF747FB5B48FFF756FBA2
:100F200000BF5948FFF766FB0346002BF9D04FF48A
:100F300080215648FFF758FA0023BB614FF48043E5
:100F40003B620023FB6107F1180319464E4801F08C
:100F500041F800233B6100233B6000237B600023BA
:100F6000BB604FF40053FB604FF480537B613B4602
:100F70001946454801F05AF800214348FFF7E6FAC0
:100F800001214148FFF7CCFAC0224FF480613E486E
:100F9000FFF7F0FA4FF4002000F000FA78647B6C61
:100FA0005B087B64384B9B68374A43F4407393601B
:100FB00000213548FFF72BFA3348FFF743FB40F297
:100FC000FF7200213048FFF765FB00BF2E48FFF796
:100FD0007FFB0346002BF9D12D4B3B643B6C93FA0E
:100FE000A3F3FB63FB6BB3FA83F303F01F0301224C
:100FF0009A40254BDB6924491343CB61244A0621DF
:101000002148FFF717FA022221491F48FFF73BFA50
:1010100040F2FF721E491C48FFF75EFA1A48FFF7BC
:10102000FDFA08E01848FFF721FB0346002B02D128
:101030001548FFF7F3FA1448FFF772FB0346002B3D
:10104000F0D01148FFF77FFB0F48FFF789FB0E48F0
:10105000FFF793FB0C48FFF74FFB0B4B1B6C0D4A44
:1010600013600C4B1B6840F6E44202FB03F30A4A90
:101070001360094B1B68094AA2FB0323DB0C064AD9
:101080001360EAE7000002580020024000230240FB
:101090000800900C7C04002480040024018000805F
:1010A00080B500AF0420FFF7CBFE00BFFFF7DCFEEA
:1010B0000346042BFAD10220FFF7E4FE4FF48040F0
:1010C000FFF7F4FEFFF79EFB00BFFFF7ABFB034605
:1010D000012BFAD12020FFF7CBFB0020FFF7B4FB58
:1010E0000020FFF78DFCFFF7C3FC0320FFF7E6FCB1
:1010F0000020FFF7CDFC0420FFF70EFD3C20FFF79A
:10110000F3FC0220FFF71EFD0220FFF731FD022055
:10111000FFF744FDFFF788FC00BFFFF795FC03468F
:10112000012BFAD1FFF774FD0320FFF7A7FD012083
:10113000FFF78EFD0420FFF7CFFD0920FFF7B4FD78
:101140000220FFF7DFFD0220FFF7F2FD0220FFF78C
:1011500005FE4FF44060FFF717FEFFF769FDFFF74C
:1011600033FD00BFFFF740FD0346012BFAD10820F5
:10117000FFF7CEFB0320FFF7A3FB0020FFF7B4FB34
:101180000820FFF7C5FB4020FFF7D6FB4FF4806037
:10119000FFF7E6FB4020FFF7F7FB4020FFF708FCD6
:1011A000054800F0A7FF044800F0B2FF0020FFF759
:1011B00013FC00BF80BD00BF00389C1C80B500AF91
:1011C000FFF7B2F8FFF7D0F800BF80BD80B400AFE2
:1011D00000BFBD465DF8047B704780B400AFFEE7FA
:1011E00080B400AFFEE780B400AFFEE780B400AF8C
:1011F000FEE780B400AF00BFBD465DF8047B7047DA
:1012000080B400AF00BFBD465DF8047B704780B47A
:1012100000AF00BFBD465DF8047B704780B500AFEE
:1012200000F0A8F800BF80BD80B400AF344BD3F805
:101230008830334A43F47003C2F88830314B1B685E
:1012400003F00F03062B07D82E4B1B6823F00F0368
:101250002C4A43F0070313602B4B1B682A4A43F0C8
:1012600001031360284B00221A61274B1A68264994
:10127000264B13400B60234B1B6803F00F03072B17
:1012800007D9204B1B6823F00F031E4A43F00703C6
:1012900013601D4B00229A611B4B0022DA611A4B2E
:1012A00000221A62184B1A4A9A62174B194ADA62DC
:1012B000154B194A1A63144B00225A63124B164AF3
:1012C0009A63114B0022DA630F4B134A1A640E4BD8
:1012D00000225A640C4B1B680B4A23F480231360D2
:1012E000094B00221A660D4B43F2D2021A60044BDE
:1012F0004FF000629A6000BFBD465DF8047B704706
:1013000000ED00E000200052004402587FEDF6EAB4
:10131000000202020000FF018002010100400052B1
:10132000DFF834D0002103E00C4B5B58435004310C
:101330000B480C4B42189A42F6D30B4A02E00023AA
:1013400042F8043B094B9A42F9D3FFF76DFF00F0D6
:10135000EFFEFFF7BFFD70470000042420230008C4
:10136000000000244004002440040024C0040024A1
:10137000FEE7000080B400AF064B1B781A46064B10
:101380001B681344044A136000BFBD465DF8047B2C
:10139000704700BF0C0000245C04002480B590B0AE
:1013A00000AF78607B68B3F5807F50D1A14B1B6D97
:1013B00003F007033B633B6B042B44D801A252F8B4
:1013C00023F000BFD9130008E9130008F91300083F
:1013D000411400080914000807F12403184600F01E
:1013E00087FCBB6AFB63DCE107F11803184600F0D9
:1013F000E7F9BB69FB63D4E107F10C03184600F081
:101400002BFBFB68FB63CCE18A4BDB6C03F04053A6
:101410007B637B6B002B02D1874BFB63C1E17B6B52
:10142000B3F1805F02D1854BFB63BAE17B6BB3F113
:10143000005F02D1824BFB63B3E10023FB63B0E1A9
:10144000804BFB63ADE10023FB6300BFA9E17B6838
:10145000B3F5007F4FD1774B1B6D03F4E0733B6313
:101460003B6B802B1CD0802B04D8002B08D0402B4A
:101470000ED03CE0C02B37D0B3F5807F18D036E0DB
:1014800007F12403184600F033FCBB6AFB6388E1D4
:1014900007F11803184600F093F9BB69FB6380E17C
:1014A00007F10C03184600F0D7FAFB68FB6378E1FC
:1014B000604BDB6C03F040537B637B6B002B02D1F2
:1014C0005D4BFB636DE17B6BB3F1805F02D15B4BE6
:1014D000FB6366E17B6BB3F1005F02D1584BFB63AA
:1014E0005FE10023FB635CE1564BFB6359E10023A2
:1014F000FB6300BF55E17B68B3F5806F53D14D4B63
:101500009B6D03F460033B633B6BB3F5800F1FD00F
:10151000B3F5800F05D8002B0AD0B3F5001F0FD00C
:101520003DE0B3F5C00F37D0B3F5000F18D036E06B
:1015300007F12403184600F0DBFBBB6AFB6330E1D4
:1015400007F11803184600F03BF9BB69FB6328E17B
:1015500007F10C03184600F07FFAFB68FB6320E1FB
:10156000344BDB6C03F040537B637B6B002B02D16D
:10157000314BFB6315E17B6BB3F1805F02D12F4BE5
:10158000FB630EE17B6BB3F1005F02D12C4BFB637D
:1015900007E10023FB6304E12A4BFB6301E1002325
:1015A000FB6300BFFDE07B68B3F5006F5DD1214BAD
:1015B0009B6D03F0E0633B633B6BB3F1007F1FD097
:1015C000B3F1007F05D8002B0AD0B3F1807F0FD094
:1015D00047E0B3F1407F41D0B3F1806F18D040E0D5
:1015E00007F12403184600F083FBBB6AFB63D8E0D5
:1015F00007F11803184600F0E3F8BB69FB63D0E07D
:1016000007F10C03184600F027FAFB68FB63C8E0FB
:10161000084BDB6C03F040537B637B6B002B02D1E8
:10162000054BFB63BDE07B6BB3F1805F0CD1034BDB
:10163000FB63B6E0004402580090D00300093D006F
:1016400000127A000080BB007B6BB3F1005F02D117
:10165000564BFB63A5E00023FB63A2E0544BFB6306
:101660009FE00023FB6300BF9BE07B68B3F5805FD6
:1016700053D1504B1B6D03F4E043BB63BB6BB3F51D
:10168000005F1FD0B3F5005F05D8002B0AD0B3F57B
:10169000805F0FD03DE0B3F5405F37D0B3F5804FAA
:1016A00018D036E007F12403184600F021FBBB6A8E
:1016B000FB6376E007F11803184600F081F8BB6978
:1016C000FB636EE007F10C03184600F0C5F9FB68F8
:1016D000FB6366E0374BDB6C03F040537B637B6B53
:1016E000002B02D1344BFB635BE07B6BB3F1805F7B
:1016F00002D1324BFB6354E07B6BB3F1005F02D14C
:101700002A4BFB634DE00023FB634AE0284BFB635D
:1017100047E00023FB6300BF43E07B68B3F5002F85
:101720003DD1244B9B6D03F44033BB63BB6BB3F5DE
:10173000803F0CD0B3F5003F11D0002B2BD107F127
:101740001803184600F03CF8BB69FB6329E007F179
:101750000C03184600F080F97B69FB6321E0154B10
:10176000DB6C03F040537B637B6B002B02D1124B8D
:10177000FB6316E07B6BB3F1805F02D10F4BFB6321
:101780000FE07B6BB3F1005F02D1084BFB6308E015
:101790000023FB6305E00023FB6300BF01E000239F
:1017A000FB63FB6B18464037BD4680BD00127A00D4
:1017B0000080BB00004402580090D00300093D00A7
:1017C00080B489B000AF78609D4B9B6A03F003033F
:1017D000BB619B4B9B6A1B0B03F03F037B61984BE8
:1017E000DB6A03F010033B61954BDB6BDB08C3F353
:1017F0000C033A6902FB03F307EE903AF8EE677ABE
:10180000C7ED037A7B69002B00F00A81BB69012BCD
:101810005AD0012B02D3022B78D099E0884B1B6859
:1018200003F02003002B2DD0854B1B68DB0803F051
:101830000303844A22FA03F3BB60BB6807EE903AC5
:10184000F8EE676A7B6907EE903AF8EE677A86EE03
:10185000A77A7B4B9B6BC3F3080307EE903AF8EE35
:10186000676A97ED036ADFED785AC6EE257A76EE61
:10187000A77AF7EE006A77EEA67A67EE277AC7EDC9
:10188000077A87E07B6907EE903AF8EE677ADFED3A
:101890006F6A86EEA77A6A4B9B6BC3F3080307EE69
:1018A000903AF8EE676A97ED036ADFED675AC6EE85
:1018B000257A76EEA77AF7EE006A77EEA67A67EEDB
:1018C000277AC7ED077A65E07B6907EE903AF8EE74
:1018D000677ADFED5F6A86EEA77A594B9B6BC3F39D
:1018E000080307EE903AF8EE676A97ED036ADFEDBA
:1018F000565AC6EE257A76EEA77AF7EE006A77EEAC
:10190000A67A67EE277AC7ED077A43E07B6907EE90
:10191000903AF8EE677ADFED4F6A86EEA77A484B89
:101920009B6BC3F3080307EE903AF8EE676A97EDF6
:10193000036ADFED455AC6EE257A76EEA77AF7EE12
:10194000006A77EEA67A67EE277AC7ED077A21E07C
:101950007B6907EE903AF8EE677ADFED3D6A86EE36
:10196000A77A374B9B6BC3F3080307EE903AF8EE68
:10197000676A97ED036ADFED345AC6EE257A76EE94
:10198000A77AF7EE006A77EEA67A67EE277AC7EDB8
:10199000077A00BF2A4B9B6B5B0A03F07F0307EEBD
:1019A000903AF8EE677AB7EE007A37EE877AD7ED9D
:1019B000076AC6EE877AFCEEE77A17EE902A7B6814
:1019C0001A601F4B9B6B1B0C03F07F0307EE903AD2
:1019D000F8EE677AB7EE007A37EE877AD7ED076AC6
:1019E000C6EE877AFCEEE77A17EE902A7B685A609B
:1019F000134B9B6B1B0E03F07F0307EE903AF8EE40
:101A0000677AB7EE007A37EE877AD7ED076AC6EEC7
:101A1000877AFCEEE77A17EE902A7B689A6008E0F6
:101A20007B6800221A607B6800225A607B68002273
:101A30009A6000BF2437BD465DF8047B704700BF45
:101A4000004402580090D003000000460024744C6B
:101A50000024744A0024F44A80B489B000AF78604E
:101A60009D4B9B6A03F00303BB619B4B9B6A1B0D61
:101A700003F03F037B61984BDB6A03F480733B61A7
:101A8000954B5B6CDB08C3F30C033A6902FB03F371
:101A900007EE903AF8EE677AC7ED037A7B69002B80
:101AA00000F00A81BB69012B5AD0012B02D3022B13
:101AB00078D099E0884B1B6803F02003002B2DD0D1
:101AC000854B1B68DB0803F00303844A22FA03F307
:101AD000BB60BB6807EE903AF8EE676A7B6907EE79
:101AE000903AF8EE677A86EEA77A7B4B1B6CC3F3CD
:101AF000080307EE903AF8EE676A97ED036ADFEDA8
:101B0000785AC6EE257A76EEA77AF7EE006A77EE77
:101B1000A67A67EE277AC7ED077A87E07B6907EE3A
:101B2000903AF8EE677ADFED6F6A86EEA77A6A4B35
:101B30001B6CC3F3080307EE903AF8EE676A97ED63
:101B4000036ADFED675AC6EE257A76EEA77AF7EEDE
:101B5000006A77EEA67A67EE277AC7ED077A65E026
:101B60007B6907EE903AF8EE677ADFED5F6A86EE02
:101B7000A77A594B1B6CC3F3080307EE903AF8EEB3
:101B8000676A97ED036ADFED565AC6EE257A76EE60
:101B9000A77AF7EE006A77EEA67A67EE277AC7EDA6
:101BA000077A43E07B6907EE903AF8EE677ADFED5B
:101BB0004F6A86EEA77A484B1B6CC3F3080307EE07
:101BC000903AF8EE676A97ED036ADFED455AC6EE84
:101BD000257A76EEA77AF7EE006A77EEA67A67EEB8
:101BE000277AC7ED077A21E07B6907EE903AF8EE95
:101BF000677ADFED3D6A86EEA77A374B1B6CC3F33D
:101C0000080307EE903AF8EE676A97ED036ADFED96
:101C1000345AC6EE257A76EEA77AF7EE006A77EEAA
:101C2000A67A67EE277AC7ED077A00BF2A4B1B6CAE
:101C30005B0A03F07F0307EE903AF8EE677AB7EE9F
:101C4000007A37EE877AD7ED076AC6EE877AFCEE20
:101C5000E77A17EE902A7B681A601F4B1B6C1B0CEF
:101C600003F07F0307EE903AF8EE677AB7EE007A5A
:101C700037EE877AD7ED076AC6EE877AFCEEE77A09
:101C800017EE902A7B685A60134B1B6C1B0E03F0F7
:101C90007F0307EE903AF8EE677AB7EE007A37EEF8
:101CA000877AD7ED076AC6EE877AFCEEE77A17EEF9
:101CB000902A7B689A6008E07B6800221A607B6843
:101CC00000225A607B6800229A6000BF2437BD461C
:101CD0005DF8047B704700BF004402580090D003B9
:101CE000000000460024744C0024744A0024F44A86
:101CF00080B489B000AF78609D4B9B6A03F003030A
:101D0000BB619B4B9B6A1B0903F03F037B61984BB4
:101D1000DB6A03F001033B61954B5B6BDB08C3F3AC
:101D20000C033A6902FB03F307EE903AF8EE677A88
:101D3000C7ED037A7B69002B00F00A81BB69012B98
:101D40005AD0012B02D3022B78D099E0884B1B6824
:101D500003F02003002B2DD0854B1B68DB0803F01C
:101D60000303844A22FA03F3BB60BB6807EE903A90
:101D7000F8EE676A7B6907EE903AF8EE677A86EECE
:101D8000A77A7B4B1B6BC3F3080307EE903AF8EE80
:101D9000676A97ED036ADFED785AC6EE257A76EE2C
:101DA000A77AF7EE006A77EEA67A67EE277AC7ED94
:101DB000077A87E07B6907EE903AF8EE677ADFED05
:101DC0006F6A86EEA77A6A4B1B6BC3F3080307EEB4
:101DD000903AF8EE676A97ED036ADFED675AC6EE50
:101DE000257A76EEA77AF7EE006A77EEA67A67EEA6
:101DF000277AC7ED077A65E07B6907EE903AF8EE3F
:101E0000677ADFED5F6A86EEA77A594B1B6BC3F3E7
:101E1000080307EE903AF8EE676A97ED036ADFED84
:101E2000565AC6EE257A76EEA77AF7EE006A77EE76
:101E3000A67A67EE277AC7ED077A43E07B6907EE5B
:101E4000903AF8EE677ADFED4F6A86EEA77A484B54
:101E50001B6BC3F3080307EE903AF8EE676A97ED41
:101E6000036ADFED455AC6EE257A76EEA77AF7EEDD
:101E7000006A77EEA67A67EE277AC7ED077A21E047
:101E80007B6907EE903AF8EE677ADFED3D6A86EE01
:101E9000A77A374B1B6BC3F3080307EE903AF8EEB3
:101EA000676A97ED036ADFED345AC6EE257A76EE5F
:101EB000A77AF7EE006A77EEA67A67EE277AC7ED83
:101EC000077A00BF2A4B1B6B5B0A03F07F0307EE08
:101ED000903AF8EE677AB7EE007A37EE877AD7ED68
:101EE000076AC6EE877AFCEEE77A17EE902A7B68DF
:101EF0001A601F4B1B6B1B0C03F07F0307EE903A1D
:101F0000F8EE677AB7EE007A37EE877AD7ED076A90
:101F1000C6EE877AFCEEE77A17EE902A7B685A6065
:101F2000134B1B6B1B0E03F07F0307EE903AF8EE8A
:101F3000677AB7EE007A37EE877AD7ED076AC6EE92
:101F4000877AFCEEE77A17EE902A7B689A6008E0C1
:101F50007B6800221A607B6800225A607B6800223E
:101F60009A6000BF2437BD465DF8047B704700BF10
:101F7000004402580090D003000000460024744C36
:101F80000024744A0024F44A80B483B000AF78601F
:101F900039607B681B6B23F00F023B681A437B6838
:101FA0001A6300BF0C37BD465DF8047B704780B4F0
:101FB00083B000AF78607B689B6803F00103012B5E
:101FC00001D1012300E0002318460C37BD465DF81F
:101FD000047B704780B584B000AF7860396001231E
:101FE000FB737868FFF7E3FF0346002B15D17B688E
:101FF000DA680D4B13403A6811683A6892680A43F0
:102000001A437B68DA607B681B6923F070423B6887
:102010005B681A437B681A6101E00023FB73FB7B5A
:1020200018461037BD4680BDE3BFFFFF80B584B0C2
:1020300000AF786039600123FB737868FFF7B7FF62
:102040000346002B32D13B685B68002B15D07B68C0
:10205000DA681A4B13403A6811683A68926811437B
:102060003A68D26811433A68126911433A68526972
:102070000A431A437B68DA6011E07B68DA680F4B29
:1020800013403A6811683A68D26811433A68126995
:1020900011433A6852690A431A437B68DA603B6825
:1020A0005B6819467868FFF76FFF01E00023FB7358
:1020B000FB7B18461037BD4680BD00BF1CC0F0FF3B
:1020C00080B483B000AF786039607A683B68B2FB57
:1020D000F3F3074A013B5360054B00229A60044B1F
:1020E00005221A6000BF0C37BD465DF8047B7047BF
:1020F00010E000E080B582B000AF78604FF47A71F4
:102100007868FFF7DDFF00BF0837BD4680BD0000DF
:1021100080B483B000AF7860044A7B68136000BF6E
:102120000C37BD465DF8047B704700BF00000024FB
:1021300070B50D4E0D4D761BB61006D0002401343F
:1021400055F8043B9847A642F9D1094E094D761B34
:1021500000F0A0F8B61006D00024013455F8043B76
:102160009847A642F9D170BDE0220008E02200089D
:10217000E8220008E0220008024B13B1024800F0F8
:1021800005B87047000000009921000800230146AF
:102190001A46184600F01EB838B50A4C0A4D641BA2
:1021A000A4100AD004F18043013B05EB8305013CF8
:1021B00055F804399847002CF9D1BDE8384000F0B3
:1021C0006FB800BF0423000800230008704700BF59
:1021D000704700BF2DE9F8432B4D06462868984606
:1021E0000F469146FFF7F2FF284B1C68D4F84831A0
:1021F000002B3DD05A681F2A0DDC02F1010C16BBE2
:102200000232C3F804C0286843F82270FFF7E0FFE9
:102210000020BDE8F8831E4B7BB34FF4C870AFF3CA
:102220000080034648B3D4F848210021C0E90021CA
:102230004FF0010CC4F848010A46C0F88811C0F8F4
:102240008C11002EDCD003EB82010124C1F88890B0
:10225000D3F8880194402043022EC3F88801C1F8C6
:102260000881CDD1D3F88C110C43C3F88C41C7E75A
:1022700004F5A673C4F84831BCE72868FFF7A8FF47
:102280004FF0FF30C5E700BF38040024C02200082B
:1022900000000000F8B500BFF8BC08BC9E467047BF
:1022A000F8B500BFF8BC08BC9E46704700000000AF
:1022B000000000000000000000000000000000001E
:1022C00010000024000000000000000000000000DA
:1022D00000000000000000000000000000000000FE
:1022E00079210008C502000800000000000000007D
:1022F00000000000000000000000000000000000DE
:10230000A102000800000000000000000000000022
:1023100000000000000000000000000000000000BD
:102320000090D0030090D0031000000001000000D6
:1023300000000000FC02002464030024CC030024FD
:10234000000000000000000000000000000000008D
:10235000000000000000000000000000000000007D
:10236000000000000000000000000000000000006D
:10237000000000000000000000000000000000005D
:10238000000000000000000000000000000000004D
:10239000000000000000000000000000000000003D
:1023A000000000000000000000000000000000002D
:1023B000000000000000000000000000000000001D
:1023C000000000000000000000000000000000000D
:1023D00000000000000000000100000000000000FC
:1023E0000E33CDAB34126DE6ECDE05000B000000C1
:1023F00000000000000000000000000000000000DD
:1024000000000000000000000000000000000000CC
:1024100000000000000000000000000000000000BC
:1024200000000000000000000000000000000000AC
:1027500000000000000000008404002400000000CD
:0400000508001321BB
:00000001FF
:020000040810E2
:100000000000082421031008710310087103100870
:10001000710310087103100871031008000000003C
:100020000000000000000000000000007103100844
:10003000710310080000000071031008710310081C
:100040007103100871031008710310087103100880
:100050007103100871031008710310087103100870
:100060007103100871031008710310087103100860
:100070007103100871031008710310087103100850
:100080007103100871031008710310087103100840
:100090007103100871031008710310087103100830
:1000A0007103100871031008710310087103100820
:1000B0007103100871031008710310087103100810
:1000C0007103100871031008710310087103100800
:1000D00071031008710310087103100871031008F0
:1000E000710310087103100800000000710310086C
:1000F00071031008710310087103100871031008D0
:1001000071031008710310087103100871031008BF
:1001100071031008710310087103100871031008AF
:10012000710310087103100871031008710310089F
:10013000710310087103100871031008710310088F
:100140007103100871031008000000000000000097
:10015000710310087103100871031008710310086F
:10016000710310087103100871031008710310085F
:1001700071031008710310087103100800000000DB
:10018000710310087103100871031008710310083F
:10019000710310087103100871031008710310082F
:1001A000710310087103100871031008710310081F
:1001B000710310087103100871031008710310080F
:1001C00071031008710310087103100871031008FF
:1001D00071031008710310087103100871031008EF
:1001E00071031008710310087103100871031008DF
:1001F00071031008710310087103100871031008CF
:1002000071031008710310087103100871031008BE
:1002100071031008710310087103100871031008AE
:10022000710310087103100871031008000000002A
:10023000710310087103100871031008710310088E
:10024000710310087103100871031008710310087E
:10025000710310087103100871031008710310086E
:10026000710310087103100871031008710310085E
:10027000710310087103100871031008710310084E
:1002800071031008710310087103100800000000CA
:100290007103100871031008000000000000000046
:1002A00010B5054C237833B9044B13B10448AFF3B0
:1002B00000800123237010BD4004042400000000CE
:1002C000D804100808B5034B1BB103490348AFF32A
:1002D000008008BD0000000044040424D804100875
:1002E00080B400AFFEE7000080B400AF0B4BD3F842
:1002F00088300A4A43F47003C2F88830074B1B6900
:10030000064A43F004031361044B4FF001629A6004
:1003100000BFBD465DF8047B704700BF00ED00E004
:10032000DFF834D0002103E00C4B5B58435004311C
:100330000B480C4B42189A42F6D30B4A02E00023BA
:1003400042F8043B094B9A42F9D3FFF7CDFF00F086
:1003500011F8FFF7C5FF704700000824600510087A
:1003600000000424400404244004042480040424E1
:10037000FEE7000070B50D4E0D4D761BB61006D091
:100380000024013455F8043B9847A642F9D1094EA0
:10039000094D761B00F0A0F8B61006D000240134F9
:1003A00055F8043B9847A642F9D170BD20051008C6
:1003B000200510082805100820051008024B13B16D
:1003C000024800F005B8704700000000DD03100887
:1003D000002301461A46184600F01EB838B50A4CEC
:1003E0000A4D641BA4100AD004F18043013B05EBC5
:1003F0008305013C55F804399847002CF9D1BDE834
:10040000384000F06FB800BF4405100840051008E0
:10041000704700BF704700BF2DE9F8432B4D0646DB
:10042000286898460F469146FFF7F2FF284B1C6854
:10043000D4F84831002B3DD05A681F2A0DDC02F158
:10044000010C16BB0232C3F804C0286843F82270BE
:10045000FFF7E0FF0020BDE8F8831E4B7BB34FF4AD
:10046000C870AFF30080034648B3D4F84821002198
:10047000C0E900214FF0010CC4F848010A46C0F859
:100480008811C0F88C11002EDCD003EB820101240E
:10049000C1F88890D3F8880194402043022EC3F815
:1004A0008801C1F80881CDD1D3F88C110C43C3F871
:1004B0008C41C7E704F5A673C4F84831BCE7286847
:1004C000FFF7A8FF4FF0FF30C5E700BF2804042462
:1004D0000005100800000000F8B500BFF8BC08BC1B
:1004E0009E467047F8B500BFF8BC08BC9E467047F2
:1004F00000000000000000000000000000000000FC
:1005000000000424000000000000000000000000C3
:1005100000000000000000000000000000000000DB
:10052000BD031008C5021008000000000000000014
:1005300000000000000000000000000000000000BB
:10054000A1021008000000000000000000000000F0
:10055000000000000000000000000000000000009B
:1005600000000000EC02042454030424BC0304240F
:10057000000000000000000000000000000000007B
:10058000000000000000000000000000000000006B
:10059000000000000000000000000000000000005B
:1005A000000000000000000000000000000000004B
:1005B000000000000000000000000000000000003B
:1005C000000000000000000000000000000000002B
:1005D000000000000000000000000000000000001B
:1005E000000000000000000000000000000000000B
:1005F00000000000000000000000000000000000FB
:1006000000000000000000000100000000000000E9
:100610000E33CDAB34126DE6ECDE05000B000000AE
:1006200000000000000000000000000000000000CA
:1006300000000000000000000000000000000000BA
:1006400000000000000000000000000000000000AA
:10065000000000000000000000000000000000009A
:1009800000000000000000005C04042400000000DF
:100990000000000000000000000000000000000057
:0400000508100321BB
:00000001FF
